{
  "contractName": "Registry",
  "abi": [
    {
      "inputs": [],
      "payable": false,
      "stateMutability": "nonpayable",
      "type": "constructor"
    },
    {
      "constant": false,
      "inputs": [
        {
          "name": "did",
          "type": "bytes32"
        },
        {
          "name": "_newHash",
          "type": "string"
        }
      ],
      "name": "setRecord",
      "outputs": [],
      "payable": false,
      "stateMutability": "nonpayable",
      "type": "function"
    },
    {
      "constant": true,
      "inputs": [
        {
          "name": "_did",
          "type": "bytes32"
        }
      ],
      "name": "getRecord",
      "outputs": [
        {
          "name": "",
          "type": "string"
        }
      ],
      "payable": false,
      "stateMutability": "view",
      "type": "function"
    }
  ],
  "bytecode": "0x608060405234801561001057600080fd5b5033600160006101000a81548173ffffffffffffffffffffffffffffffffffffffff021916908373ffffffffffffffffffffffffffffffffffffffff160217905550610581806100616000396000f30060806040526004361061004c576000357c0100000000000000000000000000000000000000000000000000000000900463ffffffff168063213681cd146100515780635ab5ee37146100fb575b600080fd5b34801561005d57600080fd5b506100806004803603810190808035600019169060200190929190505050610172565b6040518080602001828103825283818151815260200191508051906020019080838360005b838110156100c05780820151818401526020810190506100a5565b50505050905090810190601f1680156100ed5780820380516001836020036101000a031916815260200191505b509250505060405180910390f35b34801561010757600080fd5b506101706004803603810190808035600019169060200190929190803590602001908201803590602001908080601f0160208091040260200160405190810160405280939291908181526020018383808284378201915050505050509192919290505050610231565b005b606060008083600019166000191681526020019081526020016000206001018054600181600116156101000203166002900480601f0160208091040260200160405190810160405280929190818152602001828054600181600116156101000203166002900480156102255780601f106101fa57610100808354040283529160200191610225565b820191906000526020600020905b81548152906001019060200180831161020857829003601f168201915b50505050509050919050565b606060008084600019166000191681526020019081526020016000206001018054600181600116156101000203166002900480601f0160208091040260200160405190810160405280929190818152602001828054600181600116156101000203166002900480156102e45780601f106102b9576101008083540402835291602001916102e4565b820191906000526020600020905b8154815290600101906020018083116102c757829003601f168201915b50505050509050600081511415801561036657503373ffffffffffffffffffffffffffffffffffffffff16600080856000191660001916815260200190815260200160002060000160009054906101000a900473ffffffffffffffffffffffffffffffffffffffff1673ffffffffffffffffffffffffffffffffffffffff1614155b156103ff576040517f08c379a00000000000000000000000000000000000000000000000000000000081526004018080602001828103825260318152602001807f44494420726567697374726174696f6e206661696c65642e20496e76616c696481526020017f206469642070726976617465206b65792e00000000000000000000000000000081525060400191505060405180910390fd5b60408051908101604052803373ffffffffffffffffffffffffffffffffffffffff16815260200183815250600080856000191660001916815260200190815260200160002060008201518160000160006101000a81548173ffffffffffffffffffffffffffffffffffffffff021916908373ffffffffffffffffffffffffffffffffffffffff16021790555060208201518160010190805190602001906104a79291906104b0565b50905050505050565b828054600181600116156101000203166002900490600052602060002090601f016020900481019282601f106104f157805160ff191683800117855561051f565b8280016001018555821561051f579182015b8281111561051e578251825591602001919060010190610503565b5b50905061052c9190610530565b5090565b61055291905b8082111561054e576000816000905550600101610536565b5090565b905600a165627a7a7230582096fc9f671b142b5df432d1a669b3c9c0b7d2ae9fca5b1afdb44bdbaf49b89b660029",
  "source": "pragma solidity 0.4.24;\n\ncontract Registry {\n\n    struct Record {\n        address owner;\n        string ddoHash;\n    }\n\n    mapping (bytes32 => Record) private didToHash;\n\n    address private owner;\n\n    constructor() public {\n        owner = msg.sender;\n    }\n\n    function setRecord(bytes32 did, string _newHash) public {\n        bytes memory emptyTest = bytes(didToHash[did].ddoHash); \n        if (emptyTest.length != 0 && didToHash[did].owner != msg.sender) {\n            revert(\"DID registration failed. Invalid did private key.\");\n        }\n\n        didToHash[did] = Record(msg.sender, _newHash);\n    }\n\n    function getRecord(bytes32 _did) public view returns (string) {\n        return didToHash[_did].ddoHash;\n    }\n}\n",
  "sourcePath": "/Users/focus/Documents/work/jolocom/registry-contract/contracts/Registry.sol",
  "compiler": {
    "name": "solc",
    "version": "0.4.24+commit.e67f0147.Emscripten.clang"
  },
  "schemaVersion": "1.0.1",
  "updatedAt": "2018-08-10T15:34:52.271Z"
}