{
  "contractName": "Registry",
  "abi": [
    {
      "constant": true,
      "inputs": [
        {
          "name": "_did",
          "type": "bytes32"
        }
      ],
      "name": "getRecord",
      "outputs": [
        {
          "name": "",
          "type": "bytes32"
        }
      ],
      "payable": false,
      "stateMutability": "view",
      "type": "function"
    },
    {
      "constant": false,
      "inputs": [
        {
          "name": "did",
          "type": "bytes32"
        },
        {
          "name": "_newHash",
          "type": "bytes32"
        }
      ],
      "name": "setRecord",
      "outputs": [],
      "payable": false,
      "stateMutability": "nonpayable",
      "type": "function"
    },
    {
      "inputs": [],
      "payable": false,
      "stateMutability": "nonpayable",
      "type": "constructor"
    },
    {
      "anonymous": false,
      "inputs": [],
      "name": "registrationFailure",
      "type": "event"
    },
    {
      "anonymous": false,
      "inputs": [
        {
          "indexed": false,
          "name": "_ddoHash",
          "type": "bytes32"
        }
      ],
      "name": "registrationSuccess",
      "type": "event"
    }
  ],
  "bytecode": "0x6060604052341561000f57600080fd5b33600160006101000a81548173ffffffffffffffffffffffffffffffffffffffff021916908373ffffffffffffffffffffffffffffffffffffffff1602179055506102d58061005f6000396000f30060606040526004361061004c576000357c0100000000000000000000000000000000000000000000000000000000900463ffffffff168063213681cd14610051578063db33c2d614610094575b600080fd5b341561005c57600080fd5b6100766004808035600019169060200190919050506100c8565b60405180826000191660001916815260200191505060405180910390f35b341561009f57600080fd5b6100c6600480803560001916906020019091908035600019169060200190919050506100ef565b005b60008060008360001916600019168152602001908152602001600020600101549050919050565b6000600102600080846000191660001916815260200190815260200160002060010154600019161415801561018d57503373ffffffffffffffffffffffffffffffffffffffff16600080846000191660001916815260200190815260200160002060000160009054906101000a900473ffffffffffffffffffffffffffffffffffffffff1673ffffffffffffffffffffffffffffffffffffffff1614155b156101c3577f14c09d8616ea1bcf6a48491cd80dc32307b962aa8b0675a20c28067a6c68fd6460405160405180910390a1600080fd5b60408051908101604052803373ffffffffffffffffffffffffffffffffffffffff1681526020018260001916815250600080846000191660001916815260200190815260200160002060008201518160000160006101000a81548173ffffffffffffffffffffffffffffffffffffffff021916908373ffffffffffffffffffffffffffffffffffffffff160217905550602082015181600101906000191690559050507f098926cd0d351634b2e00a7a8b99f08e263bb23aa7b373f09a7b9694a04d791b8160405180826000191660001916815260200191505060405180910390a150505600a165627a7a72305820b4ad35c002370092001b0a3f3da66ecc70f8dff9ff534e24391a636db682688c0029",
  "source": "pragma solidity ^0.4.18;\n\ncontract Registry {\n    \n    struct Record {\n        address owner;\n        bytes32 ddoHash;\n    }\n    \n    event registrationFailure();\n    event registrationSuccess(bytes32 _ddoHash);\n    \n    mapping (bytes32 => Record) private didToHash;\n    \n    address private owner;\n    \n    function Registry() public {\n        owner = msg.sender;\n    }\n    \n    function setRecord(bytes32 did, bytes32 _newHash) public {\n        if (didToHash[did].ddoHash != 0 && didToHash[did].owner != msg.sender) {\n            registrationFailure();\n            revert();\n        }\n        \n        didToHash[did] = Record(msg.sender, _newHash);\n        registrationSuccess(_newHash);\n    } \n    \n    function getRecord(bytes32 _did) public view returns (bytes32) {\n        return didToHash[_did].ddoHash;\n    }\n}\n",
  "sourcePath": "/home/eugen/Documents/Work/Jolocom/registry-contract/contracts/Registry.sol",
  "compiler": {
    "name": "solc",
    "version": "0.4.18+commit.9cf6e910.Emscripten.clang"
  },
  "schemaVersion": "1.0.1",
  "updatedAt": "2018-02-07T14:04:43.800Z"
}