{
  "contractName": "Registry",
  "abi": [
    {
      "constant": true,
      "inputs": [
        {
          "name": "_did",
          "type": "bytes32"
        }
      ],
      "name": "getRecord",
      "outputs": [
        {
          "name": "",
          "type": "string"
        }
      ],
      "payable": false,
      "stateMutability": "view",
      "type": "function"
    },
    {
      "constant": false,
      "inputs": [
        {
          "name": "did",
          "type": "bytes32"
        },
        {
          "name": "_newHash",
          "type": "string"
        }
      ],
      "name": "setRecord",
      "outputs": [],
      "payable": false,
      "stateMutability": "nonpayable",
      "type": "function"
    },
    {
      "inputs": [],
      "payable": false,
      "stateMutability": "nonpayable",
      "type": "constructor"
    },
    {
      "anonymous": false,
      "inputs": [],
      "name": "registrationFailure",
      "type": "event"
    },
    {
      "anonymous": false,
      "inputs": [
        {
          "indexed": false,
          "name": "_ddoHash",
          "type": "string"
        }
      ],
      "name": "registrationSuccess",
      "type": "event"
    }
  ],
  "bytecode": "0x6060604052341561000f57600080fd5b33600160006101000a81548173ffffffffffffffffffffffffffffffffffffffff021916908373ffffffffffffffffffffffffffffffffffffffff1602179055506105d78061005f6000396000f30060606040526004361061004c576000357c0100000000000000000000000000000000000000000000000000000000900463ffffffff168063213681cd146100515780635ab5ee37146100f1575b600080fd5b341561005c57600080fd5b61007660048080356000191690602001909190505061015b565b6040518080602001828103825283818151815260200191508051906020019080838360005b838110156100b657808201518184015260208101905061009b565b50505050905090810190601f1680156100e35780820380516001836020036101000a031916815260200191505b509250505060405180910390f35b34156100fc57600080fd5b61015960048080356000191690602001909190803590602001908201803590602001908080601f01602080910402602001604051908101604052809392919081815260200183838082843782019150505050505091905050610220565b005b6101636104de565b60008083600019166000191681526020019081526020016000206001018054600181600116156101000203166002900480601f0160208091040260200160405190810160405280929190818152602001828054600181600116156101000203166002900480156102145780601f106101e957610100808354040283529160200191610214565b820191906000526020600020905b8154815290600101906020018083116101f757829003601f168201915b50505050509050919050565b6102286104f2565b60008084600019166000191681526020019081526020016000206001018054600181600116156101000203166002900480601f0160208091040260200160405190810160405280929190818152602001828054600181600116156101000203166002900480156102d95780601f106102ae576101008083540402835291602001916102d9565b820191906000526020600020905b8154815290600101906020018083116102bc57829003601f168201915b50505050509050600081511415801561035b57503373ffffffffffffffffffffffffffffffffffffffff16600080856000191660001916815260200190815260200160002060000160009054906101000a900473ffffffffffffffffffffffffffffffffffffffff1673ffffffffffffffffffffffffffffffffffffffff1614155b15610391577f14c09d8616ea1bcf6a48491cd80dc32307b962aa8b0675a20c28067a6c68fd6460405160405180910390a1600080fd5b60408051908101604052803373ffffffffffffffffffffffffffffffffffffffff16815260200183815250600080856000191660001916815260200190815260200160002060008201518160000160006101000a81548173ffffffffffffffffffffffffffffffffffffffff021916908373ffffffffffffffffffffffffffffffffffffffff1602179055506020820151816001019080519060200190610439929190610506565b509050507f7cb6fc773655cfc64350c81a0ae7de1aa50269780a3d35e7df09fd42994288e5826040518080602001828103825283818151815260200191508051906020019080838360005b8381101561049f578082015181840152602081019050610484565b50505050905090810190601f1680156104cc5780820380516001836020036101000a031916815260200191505b509250505060405180910390a1505050565b602060405190810160405280600081525090565b602060405190810160405280600081525090565b828054600181600116156101000203166002900490600052602060002090601f016020900481019282601f1061054757805160ff1916838001178555610575565b82800160010185558215610575579182015b82811115610574578251825591602001919060010190610559565b5b5090506105829190610586565b5090565b6105a891905b808211156105a457600081600090555060010161058c565b5090565b905600a165627a7a723058209eca6fd26e18c89b1af3dfeea0321555cd8b03f3201a7cc612fe152eae17d0af0029",
  "source": "pragma solidity ^0.4.18;\n\ncontract Registry {\n    \n    struct Record {\n        address owner;\n        string ddoHash;\n    }\n    \n    event registrationFailure();\n    event registrationSuccess(string _ddoHash);\n    \n    mapping (bytes32 => Record) private didToHash;\n    \n    address private owner;\n    \n    function Registry() public {\n        owner = msg.sender;\n    }\n    \n    function setRecord(bytes32 did, string _newHash) public {\n        bytes memory emptyTest = bytes(didToHash[did].ddoHash); \n        if (emptyTest.length != 0 && didToHash[did].owner != msg.sender) {\n            registrationFailure();\n            revert();\n        }\n        \n        didToHash[did] = Record(msg.sender, _newHash);\n        registrationSuccess(_newHash);\n    } \n    \n    function getRecord(bytes32 _did) public view returns (string) {\n        return didToHash[_did].ddoHash;\n    }\n}\n",
  "sourcePath": "/home/eugen/Documents/Work/Jolocom/registry-contract/contracts/Registry.sol",
  "compiler": {
    "name": "solc",
    "version": "0.4.18+commit.9cf6e910.Emscripten.clang"
  },
  "schemaVersion": "1.0.1",
  "updatedAt": "2018-02-08T10:10:37.201Z"
}